{
  "_format": "hh3-artifact-1",
  "contractName": "CrowdTicket",
  "sourceName": "contracts/CrowdTicket.sol",
  "abi": [
    {
      "anonymous": false,
      "inputs": [
        {
          "indexed": false,
          "internalType": "string",
          "name": "ticketId",
          "type": "string"
        },
        {
          "indexed": false,
          "internalType": "string",
          "name": "eventId",
          "type": "string"
        },
        {
          "indexed": false,
          "internalType": "address",
          "name": "owner",
          "type": "address"
        }
      ],
      "name": "TicketCreated",
      "type": "event"
    },
    {
      "anonymous": false,
      "inputs": [
        {
          "indexed": false,
          "internalType": "string",
          "name": "ticketId",
          "type": "string"
        },
        {
          "indexed": false,
          "internalType": "string",
          "name": "eventId",
          "type": "string"
        }
      ],
      "name": "TicketUsed",
      "type": "event"
    },
    {
      "inputs": [
        {
          "internalType": "string",
          "name": "_ticketId",
          "type": "string"
        },
        {
          "internalType": "string",
          "name": "_eventId",
          "type": "string"
        }
      ],
      "name": "createTicket",
      "outputs": [],
      "stateMutability": "nonpayable",
      "type": "function"
    },
    {
      "inputs": [
        {
          "internalType": "string",
          "name": "_ticketId",
          "type": "string"
        }
      ],
      "name": "markTicketUsed",
      "outputs": [],
      "stateMutability": "nonpayable",
      "type": "function"
    },
    {
      "inputs": [
        {
          "internalType": "string",
          "name": "",
          "type": "string"
        }
      ],
      "name": "tickets",
      "outputs": [
        {
          "internalType": "address",
          "name": "owner",
          "type": "address"
        },
        {
          "internalType": "string",
          "name": "eventId",
          "type": "string"
        },
        {
          "internalType": "bool",
          "name": "isUsed",
          "type": "bool"
        },
        {
          "internalType": "bool",
          "name": "exists",
          "type": "bool"
        }
      ],
      "stateMutability": "view",
      "type": "function"
    },
    {
      "inputs": [
        {
          "internalType": "string",
          "name": "_ticketId",
          "type": "string"
        }
      ],
      "name": "verifyTicket",
      "outputs": [
        {
          "internalType": "bool",
          "name": "",
          "type": "bool"
        },
        {
          "internalType": "address",
          "name": "",
          "type": "address"
        },
        {
          "internalType": "string",
          "name": "",
          "type": "string"
        },
        {
          "internalType": "bool",
          "name": "",
          "type": "bool"
        }
      ],
      "stateMutability": "view",
      "type": "function"
    }
  ],
  "bytecode": "0x608060405234801561000f575f80fd5b50610fcf8061001d5f395ff3fe608060405234801561000f575f80fd5b506004361061004a575f3560e01c806329ae0b7f1461004e57806333f2b19b14610081578063942b223a1461009d578063c1fb5370146100b9575b5f80fd5b61006860048036038101906100639190610822565b6100ec565b604051610078949392919061093c565b60405180910390f35b61009b60048036038101906100969190610822565b6101ed565b005b6100b760048036038101906100b29190610986565b61035a565b005b6100d360048036038101906100ce9190610822565b6104fc565b6040516100e394939291906109fc565b60405180910390f35b5f818051602081018201805184825260208301602085012081835280955050505050505f91509050805f015f9054906101000a900473ffffffffffffffffffffffffffffffffffffffff169080600101805461014790610a73565b80601f016020809104026020016040519081016040528092919081815260200182805461017390610a73565b80156101be5780601f10610195576101008083540402835291602001916101be565b820191905f5260205f20905b8154815290600101906020018083116101a157829003601f168201915b505050505090806002015f9054906101000a900460ff16908060020160019054906101000a900460ff16905084565b5f816040516101fc9190610add565b908152602001604051809103902060020160019054906101000a900460ff1661025a576040517f08c379a000000000000000000000000000000000000000000000000000000000815260040161025190610b3d565b60405180910390fd5b5f816040516102699190610add565b90815260200160405180910390206002015f9054906101000a900460ff16156102c7576040517f08c379a00000000000000000000000000000000000000000000000000000000081526004016102be90610ba5565b60405180910390fd5b60015f826040516102d89190610add565b90815260200160405180910390206002015f6101000a81548160ff0219169083151502179055507f0ec6ea11439b02352ac1e6ea4869e6c13bdfe61c08d27bc8801f2bbadcdd487b815f836040516103309190610add565b908152602001604051809103902060010160405161034f929190610c56565b60405180910390a150565b5f826040516103699190610add565b908152602001604051809103902060020160019054906101000a900460ff16156103c8576040517f08c379a00000000000000000000000000000000000000000000000000000000081526004016103bf90610cd5565b60405180910390fd5b60405180608001604052803373ffffffffffffffffffffffffffffffffffffffff1681526020018281526020015f15158152602001600115158152505f836040516104139190610add565b90815260200160405180910390205f820151815f015f6101000a81548173ffffffffffffffffffffffffffffffffffffffff021916908373ffffffffffffffffffffffffffffffffffffffff160217905550602082015181600101908161047a9190610e87565b506040820151816002015f6101000a81548160ff02191690831515021790555060608201518160020160016101000a81548160ff0219169083151502179055509050507f99663d13e9d65ac4b162365ce28314e74fe942539a9b8fb37f36cd7fd04ffeb18282336040516104f093929190610f56565b60405180910390a15050565b5f8060605f80856040516105109190610add565b908152602001604051809103902060020160019054906101000a900460ff1661056e576040517f08c379a000000000000000000000000000000000000000000000000000000000815260040161056590610b3d565b60405180910390fd5b5f808660405161057e9190610add565b90815260200160405180910390206040518060800160405290815f82015f9054906101000a900473ffffffffffffffffffffffffffffffffffffffff1673ffffffffffffffffffffffffffffffffffffffff1673ffffffffffffffffffffffffffffffffffffffff1681526020016001820180546105fb90610a73565b80601f016020809104026020016040519081016040528092919081815260200182805461062790610a73565b80156106725780601f1061064957610100808354040283529160200191610672565b820191905f5260205f20905b81548152906001019060200180831161065557829003601f168201915b50505050508152602001600282015f9054906101000a900460ff161515151581526020016002820160019054906101000a900460ff16151515158152505090508060600151815f0151826020015183604001519450945094509450509193509193565b5f604051905090565b5f80fd5b5f80fd5b5f80fd5b5f80fd5b5f601f19601f8301169050919050565b7f4e487b71000000000000000000000000000000000000000000000000000000005f52604160045260245ffd5b610734826106ee565b810181811067ffffffffffffffff82111715610753576107526106fe565b5b80604052505050565b5f6107656106d5565b9050610771828261072b565b919050565b5f67ffffffffffffffff8211156107905761078f6106fe565b5b610799826106ee565b9050602081019050919050565b828183375f83830152505050565b5f6107c66107c184610776565b61075c565b9050828152602081018484840111156107e2576107e16106ea565b5b6107ed8482856107a6565b509392505050565b5f82601f830112610809576108086106e6565b5b81356108198482602086016107b4565b91505092915050565b5f60208284031215610837576108366106de565b5b5f82013567ffffffffffffffff811115610854576108536106e2565b5b610860848285016107f5565b91505092915050565b5f73ffffffffffffffffffffffffffffffffffffffff82169050919050565b5f61089282610869565b9050919050565b6108a281610888565b82525050565b5f81519050919050565b5f82825260208201905092915050565b5f5b838110156108df5780820151818401526020810190506108c4565b5f8484015250505050565b5f6108f4826108a8565b6108fe81856108b2565b935061090e8185602086016108c2565b610917816106ee565b840191505092915050565b5f8115159050919050565b61093681610922565b82525050565b5f60808201905061094f5f830187610899565b818103602083015261096181866108ea565b9050610970604083018561092d565b61097d606083018461092d565b95945050505050565b5f806040838503121561099c5761099b6106de565b5b5f83013567ffffffffffffffff8111156109b9576109b86106e2565b5b6109c5858286016107f5565b925050602083013567ffffffffffffffff8111156109e6576109e56106e2565b5b6109f2858286016107f5565b9150509250929050565b5f608082019050610a0f5f83018761092d565b610a1c6020830186610899565b8181036040830152610a2e81856108ea565b9050610a3d606083018461092d565b95945050505050565b7f4e487b71000000000000000000000000000000000000000000000000000000005f52602260045260245ffd5b5f6002820490506001821680610a8a57607f821691505b602082108103610a9d57610a9c610a46565b5b50919050565b5f81905092915050565b5f610ab7826108a8565b610ac18185610aa3565b9350610ad18185602086016108c2565b80840191505092915050565b5f610ae88284610aad565b915081905092915050565b7f5469636b657420646f6573206e6f7420657869737400000000000000000000005f82015250565b5f610b276015836108b2565b9150610b3282610af3565b602082019050919050565b5f6020820190508181035f830152610b5481610b1b565b9050919050565b7f5469636b657420616c72656164792075736564000000000000000000000000005f82015250565b5f610b8f6013836108b2565b9150610b9a82610b5b565b602082019050919050565b5f6020820190508181035f830152610bbc81610b83565b9050919050565b5f819050815f5260205f209050919050565b5f8154610be181610a73565b610beb81866108b2565b9450600182165f8114610c055760018114610c1b57610c4d565b60ff198316865281151560200286019350610c4d565b610c2485610bc3565b5f5b83811015610c4557815481890152600182019150602081019050610c26565b808801955050505b50505092915050565b5f6040820190508181035f830152610c6e81856108ea565b90508181036020830152610c828184610bd5565b90509392505050565b7f5469636b657420616c72656164792065786973747300000000000000000000005f82015250565b5f610cbf6015836108b2565b9150610cca82610c8b565b602082019050919050565b5f6020820190508181035f830152610cec81610cb3565b9050919050565b5f6020601f8301049050919050565b5f82821b905092915050565b5f60088302610d3d7fffffffffffffffffffffffffffffffffffffffffffffffffffffffffffffffff82610d02565b610d478683610d02565b95508019841693508086168417925050509392505050565b5f819050919050565b5f819050919050565b5f610d8b610d86610d8184610d5f565b610d68565b610d5f565b9050919050565b5f819050919050565b610da483610d71565b610db8610db082610d92565b848454610d0e565b825550505050565b5f90565b610dcc610dc0565b610dd7818484610d9b565b505050565b5b81811015610dfa57610def5f82610dc4565b600181019050610ddd565b5050565b601f821115610e3f57610e1081610bc3565b610e1984610cf3565b81016020851015610e28578190505b610e3c610e3485610cf3565b830182610ddc565b50505b505050565b5f82821c905092915050565b5f610e5f5f1984600802610e44565b1980831691505092915050565b5f610e778383610e50565b9150826002028217905092915050565b610e90826108a8565b67ffffffffffffffff811115610ea957610ea86106fe565b5b610eb38254610a73565b610ebe828285610dfe565b5f60209050601f831160018114610eef575f8415610edd578287015190505b610ee78582610e6c565b865550610f4e565b601f198416610efd86610bc3565b5f5b82811015610f2457848901518255600182019150602085019450602081019050610eff565b86831015610f415784890151610f3d601f891682610e50565b8355505b6001600288020188555050505b505050505050565b5f6060820190508181035f830152610f6e81866108ea565b90508181036020830152610f8281856108ea565b9050610f916040830184610899565b94935050505056fea2646970667358221220da8aa2a10c6824fed5123f32125e170c97aa72c065d10bdb92f679bfd668d47164736f6c63430008180033",
  "linkReferences": {},
  "deployedLinkReferences": {},
  "immutableReferences": {},
  "inputSourceName": "project/contracts/CrowdTicket.sol",
  "buildInfoId": "solc-0_8_24-1429006466cbf35e7c563456ebf5e1845852eaed"
}